{"contracts/RegisterParties.sol":{"RegisterParties":{"abi":[{"inputs":[],"stateMutability":"nonpayable","type":"constructor"},{"inputs":[{"components":[{"internalType":"string","name":"partyName","type":"string"},{"internalType":"string","name":"logo","type":"string"},{"internalType":"string","name":"candidate","type":"string"},{"internalType":"string","name":"constituency","type":"string"},{"internalType":"string","name":"status","type":"string"},{"internalType":"string","name":"reporting","type":"string"},{"internalType":"string","name":"leader","type":"string"},{"internalType":"string","name":"electionCycle","type":"string"},{"internalType":"uint256","name":"totalVotes","type":"uint256"},{"internalType":"uint256","name":"votePercent","type":"uint256"},{"internalType":"uint256","name":"seatsWon","type":"uint256"}],"internalType":"struct RegisterParties.parties","name":"data","type":"tuple"}],"name":"add","outputs":[{"internalType":"bool","name":"","type":"bool"}],"stateMutability":"nonpayable","type":"function"},{"inputs":[],"name":"owner","outputs":[{"internalType":"address payable","name":"","type":"address"}],"stateMutability":"view","type":"function"}],"evm":{"bytecode":{"linkReferences":{},"object":"6080604052348015600f57600080fd5b50336000806101000a81548173ffffffffffffffffffffffffffffffffffffffff021916908373ffffffffffffffffffffffffffffffffffffffff160217905550610ab38061005f6000396000f3fe608060405234801561001057600080fd5b50600436106100365760003560e01c806380ac56f01461003b5780638da5cb5b1461006b575b600080fd5b610055600480360381019061005091906105bf565b610089565b6040516100629190610623565b60405180910390f35b610073610215565b604051610080919061067f565b60405180910390f35b60003373ffffffffffffffffffffffffffffffffffffffff1660008054906101000a900473ffffffffffffffffffffffffffffffffffffffff1673ffffffffffffffffffffffffffffffffffffffff1614610119576040517f08c379a0000000000000000000000000000000000000000000000000000000008152600401610110906106f7565b60405180910390fd5b816001836000015160405161012e9190610788565b9081526020016040518091039020600082015181600001908161015191906109ab565b50602082015181600101908161016791906109ab565b50604082015181600201908161017d91906109ab565b50606082015181600301908161019391906109ab565b5060808201518160040190816101a991906109ab565b5060a08201518160050190816101bf91906109ab565b5060c08201518160060190816101d591906109ab565b5060e08201518160070190816101eb91906109ab565b506101008201518160080155610120820151816009015561014082015181600a0155905050919050565b60008054906101000a900473ffffffffffffffffffffffffffffffffffffffff1681565b6000604051905090565b600080fd5b600080fd5b600080fd5b6000601f19601f8301169050919050565b7f4e487b7100000000000000000000000000000000000000000000000000000000600052604160045260246000fd5b61029b82610252565b810181811067ffffffffffffffff821117156102ba576102b9610263565b5b80604052505050565b60006102cd610239565b90506102d98282610292565b919050565b600080fd5b600080fd5b600080fd5b600067ffffffffffffffff82111561030857610307610263565b5b61031182610252565b9050602081019050919050565b82818337600083830152505050565b600061034061033b846102ed565b6102c3565b90508281526020810184848401111561035c5761035b6102e8565b5b61036784828561031e565b509392505050565b600082601f830112610384576103836102e3565b5b813561039484826020860161032d565b91505092915050565b6000819050919050565b6103b08161039d565b81146103bb57600080fd5b50565b6000813590506103cd816103a7565b92915050565b600061016082840312156103ea576103e961024d565b5b6103f56101606102c3565b9050600082013567ffffffffffffffff811115610415576104146102de565b5b6104218482850161036f565b600083015250602082013567ffffffffffffffff811115610445576104446102de565b5b6104518482850161036f565b602083015250604082013567ffffffffffffffff811115610475576104746102de565b5b6104818482850161036f565b604083015250606082013567ffffffffffffffff8111156104a5576104a46102de565b5b6104b18482850161036f565b606083015250608082013567ffffffffffffffff8111156104d5576104d46102de565b5b6104e18482850161036f565b60808301525060a082013567ffffffffffffffff811115610505576105046102de565b5b6105118482850161036f565b60a08301525060c082013567ffffffffffffffff811115610535576105346102de565b5b6105418482850161036f565b60c08301525060e082013567ffffffffffffffff811115610565576105646102de565b5b6105718482850161036f565b60e083015250610100610586848285016103be565b6101008301525061012061059c848285016103be565b610120830152506101406105b2848285016103be565b6101408301525092915050565b6000602082840312156105d5576105d4610243565b5b600082013567ffffffffffffffff8111156105f3576105f2610248565b5b6105ff848285016103d3565b91505092915050565b60008115159050919050565b61061d81610608565b82525050565b60006020820190506106386000830184610614565b92915050565b600073ffffffffffffffffffffffffffffffffffffffff82169050919050565b60006106698261063e565b9050919050565b6106798161065e565b82525050565b60006020820190506106946000830184610670565b92915050565b600082825260208201905092915050565b7f4f6e6c7920746865206f776e65722063616e2061646400000000000000000000600082015250565b60006106e160168361069a565b91506106ec826106ab565b602082019050919050565b60006020820190508181036000830152610710816106d4565b9050919050565b600081519050919050565b600081905092915050565b60005b8381101561074b578082015181840152602081019050610730565b60008484015250505050565b600061076282610717565b61076c8185610722565b935061077c81856020860161072d565b80840191505092915050565b60006107948284610757565b915081905092915050565b7f4e487b7100000000000000000000000000000000000000000000000000000000600052602260045260246000fd5b600060028204905060018216806107e657607f821691505b6020821081036107f9576107f861079f565b5b50919050565b60008190508160005260206000209050919050565b60006020601f8301049050919050565b600082821b905092915050565b6000600883026108617fffffffffffffffffffffffffffffffffffffffffffffffffffffffffffffffff82610824565b61086b8683610824565b95508019841693508086168417925050509392505050565b6000819050919050565b60006108a86108a361089e8461039d565b610883565b61039d565b9050919050565b6000819050919050565b6108c28361088d565b6108d66108ce826108af565b848454610831565b825550505050565b600090565b6108eb6108de565b6108f68184846108b9565b505050565b5b8181101561091a5761090f6000826108e3565b6001810190506108fc565b5050565b601f82111561095f57610930816107ff565b61093984610814565b81016020851015610948578190505b61095c61095485610814565b8301826108fb565b50505b505050565b600082821c905092915050565b600061098260001984600802610964565b1980831691505092915050565b600061099b8383610971565b9150826002028217905092915050565b6109b482610717565b67ffffffffffffffff8111156109cd576109cc610263565b5b6109d782546107ce565b6109e282828561091e565b600060209050601f831160018114610a155760008415610a03578287015190505b610a0d858261098f565b865550610a75565b601f198416610a23866107ff565b60005b82811015610a4b57848901518255600182019150602085019450602081019050610a26565b86831015610a685784890151610a64601f891682610971565b8355505b6001600288020188555050505b50505050505056fea264697066735822122092806d4f9951545b7f70324e64abbdb79ab7d8206f5732ba27c02eff0086abd864736f6c634300081c0033","opcodes":"PUSH1 0x80 PUSH1 0x40 MSTORE CALLVALUE DUP1 ISZERO PUSH1 0xF JUMPI PUSH1 0x0 DUP1 REVERT JUMPDEST POP CALLER PUSH1 0x0 DUP1 PUSH2 0x100 EXP DUP2 SLOAD DUP2 PUSH20 0xFFFFFFFFFFFFFFFFFFFFFFFFFFFFFFFFFFFFFFFF MUL NOT AND SWAP1 DUP4 PUSH20 0xFFFFFFFFFFFFFFFFFFFFFFFFFFFFFFFFFFFFFFFF AND MUL OR SWAP1 SSTORE POP PUSH2 0xAB3 DUP1 PUSH2 0x5F PUSH1 0x0 CODECOPY PUSH1 0x0 RETURN INVALID PUSH1 0x80 PUSH1 0x40 MSTORE CALLVALUE DUP1 ISZERO PUSH2 0x10 JUMPI PUSH1 0x0 DUP1 REVERT JUMPDEST POP PUSH1 0x4 CALLDATASIZE LT PUSH2 0x36 JUMPI PUSH1 0x0 CALLDATALOAD PUSH1 0xE0 SHR DUP1 PUSH4 0x80AC56F0 EQ PUSH2 0x3B JUMPI DUP1 PUSH4 0x8DA5CB5B EQ PUSH2 0x6B JUMPI JUMPDEST PUSH1 0x0 DUP1 REVERT JUMPDEST PUSH2 0x55 PUSH1 0x4 DUP1 CALLDATASIZE SUB DUP2 ADD SWAP1 PUSH2 0x50 SWAP2 SWAP1 PUSH2 0x5BF JUMP JUMPDEST PUSH2 0x89 JUMP JUMPDEST PUSH1 0x40 MLOAD PUSH2 0x62 SWAP2 SWAP1 PUSH2 0x623 JUMP JUMPDEST PUSH1 0x40 MLOAD DUP1 SWAP2 SUB SWAP1 RETURN JUMPDEST PUSH2 0x73 PUSH2 0x215 JUMP JUMPDEST PUSH1 0x40 MLOAD PUSH2 0x80 SWAP2 SWAP1 PUSH2 0x67F JUMP JUMPDEST PUSH1 0x40 MLOAD DUP1 SWAP2 SUB SWAP1 RETURN JUMPDEST PUSH1 0x0 CALLER PUSH20 0xFFFFFFFFFFFFFFFFFFFFFFFFFFFFFFFFFFFFFFFF AND PUSH1 0x0 DUP1 SLOAD SWAP1 PUSH2 0x100 EXP SWAP1 DIV PUSH20 0xFFFFFFFFFFFFFFFFFFFFFFFFFFFFFFFFFFFFFFFF AND PUSH20 0xFFFFFFFFFFFFFFFFFFFFFFFFFFFFFFFFFFFFFFFF AND EQ PUSH2 0x119 JUMPI PUSH1 0x40 MLOAD PUSH32 0x8C379A000000000000000000000000000000000000000000000000000000000 DUP2 MSTORE PUSH1 0x4 ADD PUSH2 0x110 SWAP1 PUSH2 0x6F7 JUMP JUMPDEST PUSH1 0x40 MLOAD DUP1 SWAP2 SUB SWAP1 REVERT JUMPDEST DUP2 PUSH1 0x1 DUP4 PUSH1 0x0 ADD MLOAD PUSH1 0x40 MLOAD PUSH2 0x12E SWAP2 SWAP1 PUSH2 0x788 JUMP JUMPDEST SWAP1 DUP2 MSTORE PUSH1 0x20 ADD PUSH1 0x40 MLOAD DUP1 SWAP2 SUB SWAP1 KECCAK256 PUSH1 0x0 DUP3 ADD MLOAD DUP2 PUSH1 0x0 ADD SWAP1 DUP2 PUSH2 0x151 SWAP2 SWAP1 PUSH2 0x9AB JUMP JUMPDEST POP PUSH1 0x20 DUP3 ADD MLOAD DUP2 PUSH1 0x1 ADD SWAP1 DUP2 PUSH2 0x167 SWAP2 SWAP1 PUSH2 0x9AB JUMP JUMPDEST POP PUSH1 0x40 DUP3 ADD MLOAD DUP2 PUSH1 0x2 ADD SWAP1 DUP2 PUSH2 0x17D SWAP2 SWAP1 PUSH2 0x9AB JUMP JUMPDEST POP PUSH1 0x60 DUP3 ADD MLOAD DUP2 PUSH1 0x3 ADD SWAP1 DUP2 PUSH2 0x193 SWAP2 SWAP1 PUSH2 0x9AB JUMP JUMPDEST POP PUSH1 0x80 DUP3 ADD MLOAD DUP2 PUSH1 0x4 ADD SWAP1 DUP2 PUSH2 0x1A9 SWAP2 SWAP1 PUSH2 0x9AB JUMP JUMPDEST POP PUSH1 0xA0 DUP3 ADD MLOAD DUP2 PUSH1 0x5 ADD SWAP1 DUP2 PUSH2 0x1BF SWAP2 SWAP1 PUSH2 0x9AB JUMP JUMPDEST POP PUSH1 0xC0 DUP3 ADD MLOAD DUP2 PUSH1 0x6 ADD SWAP1 DUP2 PUSH2 0x1D5 SWAP2 SWAP1 PUSH2 0x9AB JUMP JUMPDEST POP PUSH1 0xE0 DUP3 ADD MLOAD DUP2 PUSH1 0x7 ADD SWAP1 DUP2 PUSH2 0x1EB SWAP2 SWAP1 PUSH2 0x9AB JUMP JUMPDEST POP PUSH2 0x100 DUP3 ADD MLOAD DUP2 PUSH1 0x8 ADD SSTORE PUSH2 0x120 DUP3 ADD MLOAD DUP2 PUSH1 0x9 ADD SSTORE PUSH2 0x140 DUP3 ADD MLOAD DUP2 PUSH1 0xA ADD SSTORE SWAP1 POP POP SWAP2 SWAP1 POP JUMP JUMPDEST PUSH1 0x0 DUP1 SLOAD SWAP1 PUSH2 0x100 EXP SWAP1 DIV PUSH20 0xFFFFFFFFFFFFFFFFFFFFFFFFFFFFFFFFFFFFFFFF AND DUP2 JUMP JUMPDEST PUSH1 0x0 PUSH1 0x40 MLOAD SWAP1 POP SWAP1 JUMP JUMPDEST PUSH1 0x0 DUP1 REVERT JUMPDEST PUSH1 0x0 DUP1 REVERT JUMPDEST PUSH1 0x0 DUP1 REVERT JUMPDEST PUSH1 0x0 PUSH1 0x1F NOT PUSH1 0x1F DUP4 ADD AND SWAP1 POP SWAP2 SWAP1 POP JUMP JUMPDEST PUSH32 0x4E487B7100000000000000000000000000000000000000000000000000000000 PUSH1 0x0 MSTORE PUSH1 0x41 PUSH1 0x4 MSTORE PUSH1 0x24 PUSH1 0x0 REVERT JUMPDEST PUSH2 0x29B DUP3 PUSH2 0x252 JUMP JUMPDEST DUP2 ADD DUP2 DUP2 LT PUSH8 0xFFFFFFFFFFFFFFFF DUP3 GT OR ISZERO PUSH2 0x2BA JUMPI PUSH2 0x2B9 PUSH2 0x263 JUMP JUMPDEST JUMPDEST DUP1 PUSH1 0x40 MSTORE POP POP POP JUMP JUMPDEST PUSH1 0x0 PUSH2 0x2CD PUSH2 0x239 JUMP JUMPDEST SWAP1 POP PUSH2 0x2D9 DUP3 DUP3 PUSH2 0x292 JUMP JUMPDEST SWAP2 SWAP1 POP JUMP JUMPDEST PUSH1 0x0 DUP1 REVERT JUMPDEST PUSH1 0x0 DUP1 REVERT JUMPDEST PUSH1 0x0 DUP1 REVERT JUMPDEST PUSH1 0x0 PUSH8 0xFFFFFFFFFFFFFFFF DUP3 GT ISZERO PUSH2 0x308 JUMPI PUSH2 0x307 PUSH2 0x263 JUMP JUMPDEST JUMPDEST PUSH2 0x311 DUP3 PUSH2 0x252 JUMP JUMPDEST SWAP1 POP PUSH1 0x20 DUP2 ADD SWAP1 POP SWAP2 SWAP1 POP JUMP JUMPDEST DUP3 DUP2 DUP4 CALLDATACOPY PUSH1 0x0 DUP4 DUP4 ADD MSTORE POP POP POP JUMP JUMPDEST PUSH1 0x0 PUSH2 0x340 PUSH2 0x33B DUP5 PUSH2 0x2ED JUMP JUMPDEST PUSH2 0x2C3 JUMP JUMPDEST SWAP1 POP DUP3 DUP2 MSTORE PUSH1 0x20 DUP2 ADD DUP5 DUP5 DUP5 ADD GT ISZERO PUSH2 0x35C JUMPI PUSH2 0x35B PUSH2 0x2E8 JUMP JUMPDEST JUMPDEST PUSH2 0x367 DUP5 DUP3 DUP6 PUSH2 0x31E JUMP JUMPDEST POP SWAP4 SWAP3 POP POP POP JUMP JUMPDEST PUSH1 0x0 DUP3 PUSH1 0x1F DUP4 ADD SLT PUSH2 0x384 JUMPI PUSH2 0x383 PUSH2 0x2E3 JUMP JUMPDEST JUMPDEST DUP2 CALLDATALOAD PUSH2 0x394 DUP5 DUP3 PUSH1 0x20 DUP7 ADD PUSH2 0x32D JUMP JUMPDEST SWAP2 POP POP SWAP3 SWAP2 POP POP JUMP JUMPDEST PUSH1 0x0 DUP2 SWAP1 POP SWAP2 SWAP1 POP JUMP JUMPDEST PUSH2 0x3B0 DUP2 PUSH2 0x39D JUMP JUMPDEST DUP2 EQ PUSH2 0x3BB JUMPI PUSH1 0x0 DUP1 REVERT JUMPDEST POP JUMP JUMPDEST PUSH1 0x0 DUP2 CALLDATALOAD SWAP1 POP PUSH2 0x3CD DUP2 PUSH2 0x3A7 JUMP JUMPDEST SWAP3 SWAP2 POP POP JUMP JUMPDEST PUSH1 0x0 PUSH2 0x160 DUP3 DUP5 SUB SLT ISZERO PUSH2 0x3EA JUMPI PUSH2 0x3E9 PUSH2 0x24D JUMP JUMPDEST JUMPDEST PUSH2 0x3F5 PUSH2 0x160 PUSH2 0x2C3 JUMP JUMPDEST SWAP1 POP PUSH1 0x0 DUP3 ADD CALLDATALOAD PUSH8 0xFFFFFFFFFFFFFFFF DUP2 GT ISZERO PUSH2 0x415 JUMPI PUSH2 0x414 PUSH2 0x2DE JUMP JUMPDEST JUMPDEST PUSH2 0x421 DUP5 DUP3 DUP6 ADD PUSH2 0x36F JUMP JUMPDEST PUSH1 0x0 DUP4 ADD MSTORE POP PUSH1 0x20 DUP3 ADD CALLDATALOAD PUSH8 0xFFFFFFFFFFFFFFFF DUP2 GT ISZERO PUSH2 0x445 JUMPI PUSH2 0x444 PUSH2 0x2DE JUMP JUMPDEST JUMPDEST PUSH2 0x451 DUP5 DUP3 DUP6 ADD PUSH2 0x36F JUMP JUMPDEST PUSH1 0x20 DUP4 ADD MSTORE POP PUSH1 0x40 DUP3 ADD CALLDATALOAD PUSH8 0xFFFFFFFFFFFFFFFF DUP2 GT ISZERO PUSH2 0x475 JUMPI PUSH2 0x474 PUSH2 0x2DE JUMP JUMPDEST JUMPDEST PUSH2 0x481 DUP5 DUP3 DUP6 ADD PUSH2 0x36F JUMP JUMPDEST PUSH1 0x40 DUP4 ADD MSTORE POP PUSH1 0x60 DUP3 ADD CALLDATALOAD PUSH8 0xFFFFFFFFFFFFFFFF DUP2 GT ISZERO PUSH2 0x4A5 JUMPI PUSH2 0x4A4 PUSH2 0x2DE JUMP JUMPDEST JUMPDEST PUSH2 0x4B1 DUP5 DUP3 DUP6 ADD PUSH2 0x36F JUMP JUMPDEST PUSH1 0x60 DUP4 ADD MSTORE POP PUSH1 0x80 DUP3 ADD CALLDATALOAD PUSH8 0xFFFFFFFFFFFFFFFF DUP2 GT ISZERO PUSH2 0x4D5 JUMPI PUSH2 0x4D4 PUSH2 0x2DE JUMP JUMPDEST JUMPDEST PUSH2 0x4E1 DUP5 DUP3 DUP6 ADD PUSH2 0x36F JUMP JUMPDEST PUSH1 0x80 DUP4 ADD MSTORE POP PUSH1 0xA0 DUP3 ADD CALLDATALOAD PUSH8 0xFFFFFFFFFFFFFFFF DUP2 GT ISZERO PUSH2 0x505 JUMPI PUSH2 0x504 PUSH2 0x2DE JUMP JUMPDEST JUMPDEST PUSH2 0x511 DUP5 DUP3 DUP6 ADD PUSH2 0x36F JUMP JUMPDEST PUSH1 0xA0 DUP4 ADD MSTORE POP PUSH1 0xC0 DUP3 ADD CALLDATALOAD PUSH8 0xFFFFFFFFFFFFFFFF DUP2 GT ISZERO PUSH2 0x535 JUMPI PUSH2 0x534 PUSH2 0x2DE JUMP JUMPDEST JUMPDEST PUSH2 0x541 DUP5 DUP3 DUP6 ADD PUSH2 0x36F JUMP JUMPDEST PUSH1 0xC0 DUP4 ADD MSTORE POP PUSH1 0xE0 DUP3 ADD CALLDATALOAD PUSH8 0xFFFFFFFFFFFFFFFF DUP2 GT ISZERO PUSH2 0x565 JUMPI PUSH2 0x564 PUSH2 0x2DE JUMP JUMPDEST JUMPDEST PUSH2 0x571 DUP5 DUP3 DUP6 ADD PUSH2 0x36F JUMP JUMPDEST PUSH1 0xE0 DUP4 ADD MSTORE POP PUSH2 0x100 PUSH2 0x586 DUP5 DUP3 DUP6 ADD PUSH2 0x3BE JUMP JUMPDEST PUSH2 0x100 DUP4 ADD MSTORE POP PUSH2 0x120 PUSH2 0x59C DUP5 DUP3 DUP6 ADD PUSH2 0x3BE JUMP JUMPDEST PUSH2 0x120 DUP4 ADD MSTORE POP PUSH2 0x140 PUSH2 0x5B2 DUP5 DUP3 DUP6 ADD PUSH2 0x3BE JUMP JUMPDEST PUSH2 0x140 DUP4 ADD MSTORE POP SWAP3 SWAP2 POP POP JUMP JUMPDEST PUSH1 0x0 PUSH1 0x20 DUP3 DUP5 SUB SLT ISZERO PUSH2 0x5D5 JUMPI PUSH2 0x5D4 PUSH2 0x243 JUMP JUMPDEST JUMPDEST PUSH1 0x0 DUP3 ADD CALLDATALOAD PUSH8 0xFFFFFFFFFFFFFFFF DUP2 GT ISZERO PUSH2 0x5F3 JUMPI PUSH2 0x5F2 PUSH2 0x248 JUMP JUMPDEST JUMPDEST PUSH2 0x5FF DUP5 DUP3 DUP6 ADD PUSH2 0x3D3 JUMP JUMPDEST SWAP2 POP POP SWAP3 SWAP2 POP POP JUMP JUMPDEST PUSH1 0x0 DUP2 ISZERO ISZERO SWAP1 POP SWAP2 SWAP1 POP JUMP JUMPDEST PUSH2 0x61D DUP2 PUSH2 0x608 JUMP JUMPDEST DUP3 MSTORE POP POP JUMP JUMPDEST PUSH1 0x0 PUSH1 0x20 DUP3 ADD SWAP1 POP PUSH2 0x638 PUSH1 0x0 DUP4 ADD DUP5 PUSH2 0x614 JUMP JUMPDEST SWAP3 SWAP2 POP POP JUMP JUMPDEST PUSH1 0x0 PUSH20 0xFFFFFFFFFFFFFFFFFFFFFFFFFFFFFFFFFFFFFFFF DUP3 AND SWAP1 POP SWAP2 SWAP1 POP JUMP JUMPDEST PUSH1 0x0 PUSH2 0x669 DUP3 PUSH2 0x63E JUMP JUMPDEST SWAP1 POP SWAP2 SWAP1 POP JUMP JUMPDEST PUSH2 0x679 DUP2 PUSH2 0x65E JUMP JUMPDEST DUP3 MSTORE POP POP JUMP JUMPDEST PUSH1 0x0 PUSH1 0x20 DUP3 ADD SWAP1 POP PUSH2 0x694 PUSH1 0x0 DUP4 ADD DUP5 PUSH2 0x670 JUMP JUMPDEST SWAP3 SWAP2 POP POP JUMP JUMPDEST PUSH1 0x0 DUP3 DUP3 MSTORE PUSH1 0x20 DUP3 ADD SWAP1 POP SWAP3 SWAP2 POP POP JUMP JUMPDEST PUSH32 0x4F6E6C7920746865206F776E65722063616E2061646400000000000000000000 PUSH1 0x0 DUP3 ADD MSTORE POP JUMP JUMPDEST PUSH1 0x0 PUSH2 0x6E1 PUSH1 0x16 DUP4 PUSH2 0x69A JUMP JUMPDEST SWAP2 POP PUSH2 0x6EC DUP3 PUSH2 0x6AB JUMP JUMPDEST PUSH1 0x20 DUP3 ADD SWAP1 POP SWAP2 SWAP1 POP JUMP JUMPDEST PUSH1 0x0 PUSH1 0x20 DUP3 ADD SWAP1 POP DUP2 DUP2 SUB PUSH1 0x0 DUP4 ADD MSTORE PUSH2 0x710 DUP2 PUSH2 0x6D4 JUMP JUMPDEST SWAP1 POP SWAP2 SWAP1 POP JUMP JUMPDEST PUSH1 0x0 DUP2 MLOAD SWAP1 POP SWAP2 SWAP1 POP JUMP JUMPDEST PUSH1 0x0 DUP2 SWAP1 POP SWAP3 SWAP2 POP POP JUMP JUMPDEST PUSH1 0x0 JUMPDEST DUP4 DUP2 LT ISZERO PUSH2 0x74B JUMPI DUP1 DUP3 ADD MLOAD DUP2 DUP5 ADD MSTORE PUSH1 0x20 DUP2 ADD SWAP1 POP PUSH2 0x730 JUMP JUMPDEST PUSH1 0x0 DUP5 DUP5 ADD MSTORE POP POP POP POP JUMP JUMPDEST PUSH1 0x0 PUSH2 0x762 DUP3 PUSH2 0x717 JUMP JUMPDEST PUSH2 0x76C DUP2 DUP6 PUSH2 0x722 JUMP JUMPDEST SWAP4 POP PUSH2 0x77C DUP2 DUP6 PUSH1 0x20 DUP7 ADD PUSH2 0x72D JUMP JUMPDEST DUP1 DUP5 ADD SWAP2 POP POP SWAP3 SWAP2 POP POP JUMP JUMPDEST PUSH1 0x0 PUSH2 0x794 DUP3 DUP5 PUSH2 0x757 JUMP JUMPDEST SWAP2 POP DUP2 SWAP1 POP SWAP3 SWAP2 POP POP JUMP JUMPDEST PUSH32 0x4E487B7100000000000000000000000000000000000000000000000000000000 PUSH1 0x0 MSTORE PUSH1 0x22 PUSH1 0x4 MSTORE PUSH1 0x24 PUSH1 0x0 REVERT JUMPDEST PUSH1 0x0 PUSH1 0x2 DUP3 DIV SWAP1 POP PUSH1 0x1 DUP3 AND DUP1 PUSH2 0x7E6 JUMPI PUSH1 0x7F DUP3 AND SWAP2 POP JUMPDEST PUSH1 0x20 DUP3 LT DUP2 SUB PUSH2 0x7F9 JUMPI PUSH2 0x7F8 PUSH2 0x79F JUMP JUMPDEST JUMPDEST POP SWAP2 SWAP1 POP JUMP JUMPDEST PUSH1 0x0 DUP2 SWAP1 POP DUP2 PUSH1 0x0 MSTORE PUSH1 0x20 PUSH1 0x0 KECCAK256 SWAP1 POP SWAP2 SWAP1 POP JUMP JUMPDEST PUSH1 0x0 PUSH1 0x20 PUSH1 0x1F DUP4 ADD DIV SWAP1 POP SWAP2 SWAP1 POP JUMP JUMPDEST PUSH1 0x0 DUP3 DUP3 SHL SWAP1 POP SWAP3 SWAP2 POP POP JUMP JUMPDEST PUSH1 0x0 PUSH1 0x8 DUP4 MUL PUSH2 0x861 PUSH32 0xFFFFFFFFFFFFFFFFFFFFFFFFFFFFFFFFFFFFFFFFFFFFFFFFFFFFFFFFFFFFFFFF DUP3 PUSH2 0x824 JUMP JUMPDEST PUSH2 0x86B DUP7 DUP4 PUSH2 0x824 JUMP JUMPDEST SWAP6 POP DUP1 NOT DUP5 AND SWAP4 POP DUP1 DUP7 AND DUP5 OR SWAP3 POP POP POP SWAP4 SWAP3 POP POP POP JUMP JUMPDEST PUSH1 0x0 DUP2 SWAP1 POP SWAP2 SWAP1 POP JUMP JUMPDEST PUSH1 0x0 PUSH2 0x8A8 PUSH2 0x8A3 PUSH2 0x89E DUP5 PUSH2 0x39D JUMP JUMPDEST PUSH2 0x883 JUMP JUMPDEST PUSH2 0x39D JUMP JUMPDEST SWAP1 POP SWAP2 SWAP1 POP JUMP JUMPDEST PUSH1 0x0 DUP2 SWAP1 POP SWAP2 SWAP1 POP JUMP JUMPDEST PUSH2 0x8C2 DUP4 PUSH2 0x88D JUMP JUMPDEST PUSH2 0x8D6 PUSH2 0x8CE DUP3 PUSH2 0x8AF JUMP JUMPDEST DUP5 DUP5 SLOAD PUSH2 0x831 JUMP JUMPDEST DUP3 SSTORE POP POP POP POP JUMP JUMPDEST PUSH1 0x0 SWAP1 JUMP JUMPDEST PUSH2 0x8EB PUSH2 0x8DE JUMP JUMPDEST PUSH2 0x8F6 DUP2 DUP5 DUP5 PUSH2 0x8B9 JUMP JUMPDEST POP POP POP JUMP JUMPDEST JUMPDEST DUP2 DUP2 LT ISZERO PUSH2 0x91A JUMPI PUSH2 0x90F PUSH1 0x0 DUP3 PUSH2 0x8E3 JUMP JUMPDEST PUSH1 0x1 DUP2 ADD SWAP1 POP PUSH2 0x8FC JUMP JUMPDEST POP POP JUMP JUMPDEST PUSH1 0x1F DUP3 GT ISZERO PUSH2 0x95F JUMPI PUSH2 0x930 DUP2 PUSH2 0x7FF JUMP JUMPDEST PUSH2 0x939 DUP5 PUSH2 0x814 JUMP JUMPDEST DUP2 ADD PUSH1 0x20 DUP6 LT ISZERO PUSH2 0x948 JUMPI DUP2 SWAP1 POP JUMPDEST PUSH2 0x95C PUSH2 0x954 DUP6 PUSH2 0x814 JUMP JUMPDEST DUP4 ADD DUP3 PUSH2 0x8FB JUMP JUMPDEST POP POP JUMPDEST POP POP POP JUMP JUMPDEST PUSH1 0x0 DUP3 DUP3 SHR SWAP1 POP SWAP3 SWAP2 POP POP JUMP JUMPDEST PUSH1 0x0 PUSH2 0x982 PUSH1 0x0 NOT DUP5 PUSH1 0x8 MUL PUSH2 0x964 JUMP JUMPDEST NOT DUP1 DUP4 AND SWAP2 POP POP SWAP3 SWAP2 POP POP JUMP JUMPDEST PUSH1 0x0 PUSH2 0x99B DUP4 DUP4 PUSH2 0x971 JUMP JUMPDEST SWAP2 POP DUP3 PUSH1 0x2 MUL DUP3 OR SWAP1 POP SWAP3 SWAP2 POP POP JUMP JUMPDEST PUSH2 0x9B4 DUP3 PUSH2 0x717 JUMP JUMPDEST PUSH8 0xFFFFFFFFFFFFFFFF DUP2 GT ISZERO PUSH2 0x9CD JUMPI PUSH2 0x9CC PUSH2 0x263 JUMP JUMPDEST JUMPDEST PUSH2 0x9D7 DUP3 SLOAD PUSH2 0x7CE JUMP JUMPDEST PUSH2 0x9E2 DUP3 DUP3 DUP6 PUSH2 0x91E JUMP JUMPDEST PUSH1 0x0 PUSH1 0x20 SWAP1 POP PUSH1 0x1F DUP4 GT PUSH1 0x1 DUP2 EQ PUSH2 0xA15 JUMPI PUSH1 0x0 DUP5 ISZERO PUSH2 0xA03 JUMPI DUP3 DUP8 ADD MLOAD SWAP1 POP JUMPDEST PUSH2 0xA0D DUP6 DUP3 PUSH2 0x98F JUMP JUMPDEST DUP7 SSTORE POP PUSH2 0xA75 JUMP JUMPDEST PUSH1 0x1F NOT DUP5 AND PUSH2 0xA23 DUP7 PUSH2 0x7FF JUMP JUMPDEST PUSH1 0x0 JUMPDEST DUP3 DUP2 LT ISZERO PUSH2 0xA4B JUMPI DUP5 DUP10 ADD MLOAD DUP3 SSTORE PUSH1 0x1 DUP3 ADD SWAP2 POP PUSH1 0x20 DUP6 ADD SWAP5 POP PUSH1 0x20 DUP2 ADD SWAP1 POP PUSH2 0xA26 JUMP JUMPDEST DUP7 DUP4 LT ISZERO PUSH2 0xA68 JUMPI DUP5 DUP10 ADD MLOAD PUSH2 0xA64 PUSH1 0x1F DUP10 AND DUP3 PUSH2 0x971 JUMP JUMPDEST DUP4 SSTORE POP JUMPDEST PUSH1 0x1 PUSH1 0x2 DUP9 MUL ADD DUP9 SSTORE POP POP POP JUMPDEST POP POP POP POP POP POP JUMP INVALID LOG2 PUSH5 0x6970667358 0x22 SLT KECCAK256 SWAP3 DUP1 PUSH14 0x4F9951545B7F70324E64ABBDB79A 0xB7 0xD8 KECCAK256 PUSH16 0x5732BA27C02EFF0086ABD864736F6C63 NUMBER STOP ADDMOD SHR STOP CALLER "},"methodIdentifiers":{"add((string,string,string,string,string,string,string,string,uint256,uint256,uint256))":"80ac56f0","owner()":"8da5cb5b"}}}}}