{"contracts/Counter.sol":{"Counter":{"abi":[{"inputs":[],"name":"count","outputs":[{"internalType":"uint256","name":"","type":"uint256"}],"stateMutability":"view","type":"function"},{"inputs":[],"name":"getCount","outputs":[{"internalType":"uint256","name":"","type":"uint256"}],"stateMutability":"view","type":"function"},{"inputs":[],"name":"increment","outputs":[],"stateMutability":"nonpayable","type":"function"}],"evm":{"bytecode":{"linkReferences":{},"object":"6080604052348015600f57600080fd5b506101838061001f6000396000f3fe608060405234801561001057600080fd5b50600436106100415760003560e01c806306661abd14610046578063a87d942c14610064578063d09de08a14610082575b600080fd5b61004e61008c565b60405161005b91906100cf565b60405180910390f35b61006c610092565b60405161007991906100cf565b60405180910390f35b61008a61009b565b005b60005481565b60008054905090565b60016000808282546100ad9190610119565b92505081905550565b6000819050919050565b6100c9816100b6565b82525050565b60006020820190506100e460008301846100c0565b92915050565b7f4e487b7100000000000000000000000000000000000000000000000000000000600052601160045260246000fd5b6000610124826100b6565b915061012f836100b6565b9250828201905080821115610147576101466100ea565b5b9291505056fea26469706673582212203ab4bff30202f52bec401644f13102e084fa244ac936c58fa93a6658724c1d1664736f6c634300081c0033","opcodes":"PUSH1 0x80 PUSH1 0x40 MSTORE CALLVALUE DUP1 ISZERO PUSH1 0xF JUMPI PUSH1 0x0 DUP1 REVERT JUMPDEST POP PUSH2 0x183 DUP1 PUSH2 0x1F PUSH1 0x0 CODECOPY PUSH1 0x0 RETURN INVALID PUSH1 0x80 PUSH1 0x40 MSTORE CALLVALUE DUP1 ISZERO PUSH2 0x10 JUMPI PUSH1 0x0 DUP1 REVERT JUMPDEST POP PUSH1 0x4 CALLDATASIZE LT PUSH2 0x41 JUMPI PUSH1 0x0 CALLDATALOAD PUSH1 0xE0 SHR DUP1 PUSH4 0x6661ABD EQ PUSH2 0x46 JUMPI DUP1 PUSH4 0xA87D942C EQ PUSH2 0x64 JUMPI DUP1 PUSH4 0xD09DE08A EQ PUSH2 0x82 JUMPI JUMPDEST PUSH1 0x0 DUP1 REVERT JUMPDEST PUSH2 0x4E PUSH2 0x8C JUMP JUMPDEST PUSH1 0x40 MLOAD PUSH2 0x5B SWAP2 SWAP1 PUSH2 0xCF JUMP JUMPDEST PUSH1 0x40 MLOAD DUP1 SWAP2 SUB SWAP1 RETURN JUMPDEST PUSH2 0x6C PUSH2 0x92 JUMP JUMPDEST PUSH1 0x40 MLOAD PUSH2 0x79 SWAP2 SWAP1 PUSH2 0xCF JUMP JUMPDEST PUSH1 0x40 MLOAD DUP1 SWAP2 SUB SWAP1 RETURN JUMPDEST PUSH2 0x8A PUSH2 0x9B JUMP JUMPDEST STOP JUMPDEST PUSH1 0x0 SLOAD DUP2 JUMP JUMPDEST PUSH1 0x0 DUP1 SLOAD SWAP1 POP SWAP1 JUMP JUMPDEST PUSH1 0x1 PUSH1 0x0 DUP1 DUP3 DUP3 SLOAD PUSH2 0xAD SWAP2 SWAP1 PUSH2 0x119 JUMP JUMPDEST SWAP3 POP POP DUP2 SWAP1 SSTORE POP JUMP JUMPDEST PUSH1 0x0 DUP2 SWAP1 POP SWAP2 SWAP1 POP JUMP JUMPDEST PUSH2 0xC9 DUP2 PUSH2 0xB6 JUMP JUMPDEST DUP3 MSTORE POP POP JUMP JUMPDEST PUSH1 0x0 PUSH1 0x20 DUP3 ADD SWAP1 POP PUSH2 0xE4 PUSH1 0x0 DUP4 ADD DUP5 PUSH2 0xC0 JUMP JUMPDEST SWAP3 SWAP2 POP POP JUMP JUMPDEST PUSH32 0x4E487B7100000000000000000000000000000000000000000000000000000000 PUSH1 0x0 MSTORE PUSH1 0x11 PUSH1 0x4 MSTORE PUSH1 0x24 PUSH1 0x0 REVERT JUMPDEST PUSH1 0x0 PUSH2 0x124 DUP3 PUSH2 0xB6 JUMP JUMPDEST SWAP2 POP PUSH2 0x12F DUP4 PUSH2 0xB6 JUMP JUMPDEST SWAP3 POP DUP3 DUP3 ADD SWAP1 POP DUP1 DUP3 GT ISZERO PUSH2 0x147 JUMPI PUSH2 0x146 PUSH2 0xEA JUMP JUMPDEST JUMPDEST SWAP3 SWAP2 POP POP JUMP INVALID LOG2 PUSH5 0x6970667358 0x22 SLT KECCAK256 GASPRICE 0xB4 0xBF RETURN MUL MUL CREATE2 0x2B 0xEC BLOCKHASH AND PREVRANDAO CALL BALANCE MUL 0xE0 DUP5 STATICCALL 0x24 BLOBBASEFEE 0xC9 CALLDATASIZE 0xC5 DUP16 0xA9 GASPRICE PUSH7 0x58724C1D166473 PUSH16 0x6C634300081C00330000000000000000 "},"methodIdentifiers":{"count()":"06661abd","getCount()":"a87d942c","increment()":"d09de08a"}}}}}