{
  "_format": "hh-sol-artifact-1",
  "contractName": "RegisterParties",
  "sourceName": "contracts/RegisterParties.sol",
  "abi": [
    {
      "inputs": [],
      "stateMutability": "nonpayable",
      "type": "constructor"
    },
    {
      "anonymous": false,
      "inputs": [
        {
          "indexed": true,
          "internalType": "string",
          "name": "partyName",
          "type": "string"
        }
      ],
      "name": "AddedParty",
      "type": "event"
    },
    {
      "inputs": [
        {
          "internalType": "string",
          "name": "name",
          "type": "string"
        },
        {
          "internalType": "string",
          "name": "url",
          "type": "string"
        }
      ],
      "name": "add",
      "outputs": [],
      "stateMutability": "nonpayable",
      "type": "function"
    },
    {
      "inputs": [],
      "name": "owner",
      "outputs": [
        {
          "internalType": "address payable",
          "name": "",
          "type": "address"
        }
      ],
      "stateMutability": "view",
      "type": "function"
    },
    {
      "inputs": [],
      "name": "totallVotes",
      "outputs": [
        {
          "internalType": "uint256",
          "name": "",
          "type": "uint256"
        }
      ],
      "stateMutability": "view",
      "type": "function"
    }
  ],
  "bytecode": "0x60a0604052348015600f57600080fd5b503373ffffffffffffffffffffffffffffffffffffffff1660808173ffffffffffffffffffffffffffffffffffffffff16815250506080516107306100646000396000818160a6015260e101526107306000f3fe608060405234801561001057600080fd5b50600436106100415760003560e01c806338a17ac0146100465780638da5cb5b14610064578063ebdf86ca14610082575b600080fd5b61004e61009e565b60405161005b91906101a8565b60405180910390f35b61006c6100a4565b6040516100799190610204565b60405180910390f35b61009c6004803603810190610097919061028e565b6100c8565b005b60005481565b7f000000000000000000000000000000000000000000000000000000000000000081565b3373ffffffffffffffffffffffffffffffffffffffff167f000000000000000000000000000000000000000000000000000000000000000073ffffffffffffffffffffffffffffffffffffffff1614610156576040517f08c379a000000000000000000000000000000000000000000000000000000000815260040161014d9061036c565b60405180910390fd5b81816001868660405161016a9291906103cb565b9081526020016040518091039020600201918261018892919061062a565b5050505050565b6000819050919050565b6101a28161018f565b82525050565b60006020820190506101bd6000830184610199565b92915050565b600073ffffffffffffffffffffffffffffffffffffffff82169050919050565b60006101ee826101c3565b9050919050565b6101fe816101e3565b82525050565b600060208201905061021960008301846101f5565b92915050565b600080fd5b600080fd5b600080fd5b600080fd5b600080fd5b60008083601f84011261024e5761024d610229565b5b8235905067ffffffffffffffff81111561026b5761026a61022e565b5b60208301915083600182028301111561028757610286610233565b5b9250929050565b600080600080604085870312156102a8576102a761021f565b5b600085013567ffffffffffffffff8111156102c6576102c5610224565b5b6102d287828801610238565b9450945050602085013567ffffffffffffffff8111156102f5576102f4610224565b5b61030187828801610238565b925092505092959194509250565b600082825260208201905092915050565b7f4f6e6c7920746865206f776e65722063616e2061646400000000000000000000600082015250565b600061035660168361030f565b915061036182610320565b602082019050919050565b6000602082019050818103600083015261038581610349565b9050919050565b600081905092915050565b82818337600083830152505050565b60006103b2838561038c565b93506103bf838584610397565b82840190509392505050565b60006103d88284866103a6565b91508190509392505050565b600082905092915050565b7f4e487b7100000000000000000000000000000000000000000000000000000000600052604160045260246000fd5b7f4e487b7100000000000000000000000000000000000000000000000000000000600052602260045260246000fd5b6000600282049050600182168061046557607f821691505b6020821081036104785761047761041e565b5b50919050565b60008190508160005260206000209050919050565b60006020601f8301049050919050565b600082821b905092915050565b6000600883026104e07fffffffffffffffffffffffffffffffffffffffffffffffffffffffffffffffff826104a3565b6104ea86836104a3565b95508019841693508086168417925050509392505050565b6000819050919050565b600061052761052261051d8461018f565b610502565b61018f565b9050919050565b6000819050919050565b6105418361050c565b61055561054d8261052e565b8484546104b0565b825550505050565b600090565b61056a61055d565b610575818484610538565b505050565b5b818110156105995761058e600082610562565b60018101905061057b565b5050565b601f8211156105de576105af8161047e565b6105b884610493565b810160208510156105c7578190505b6105db6105d385610493565b83018261057a565b50505b505050565b600082821c905092915050565b6000610601600019846008026105e3565b1980831691505092915050565b600061061a83836105f0565b9150826002028217905092915050565b61063483836103e4565b67ffffffffffffffff81111561064d5761064c6103ef565b5b610657825461044d565b61066282828561059d565b6000601f831160018114610691576000841561067f578287013590505b610689858261060e565b8655506106f1565b601f19841661069f8661047e565b60005b828110156106c7578489013582556001820191506020850194506020810190506106a2565b868310156106e457848901356106e0601f8916826105f0565b8355505b6001600288020188555050505b5050505050505056fea2646970667358221220c31812d8ede184f83f4e24774a587289f708132f798401db450318507fc759e164736f6c634300081c0033",
  "linkReferences": {},
  "deployedLinkReferences": {}
}