{
  "_format": "hh-sol-artifact-1",
  "contractName": "RegisterParties",
  "sourceName": "contracts/RegisterParties.sol",
  "abi": [
    {
      "inputs": [],
      "stateMutability": "nonpayable",
      "type": "constructor"
    },
    {
      "inputs": [
        {
          "components": [
            {
              "internalType": "string",
              "name": "partyName",
              "type": "string"
            },
            {
              "internalType": "string",
              "name": "logo",
              "type": "string"
            },
            {
              "internalType": "string",
              "name": "candidate",
              "type": "string"
            },
            {
              "internalType": "string",
              "name": "constituency",
              "type": "string"
            },
            {
              "internalType": "string",
              "name": "status",
              "type": "string"
            },
            {
              "internalType": "string",
              "name": "reporting",
              "type": "string"
            },
            {
              "internalType": "string",
              "name": "leader",
              "type": "string"
            },
            {
              "internalType": "string",
              "name": "electionCycle",
              "type": "string"
            },
            {
              "internalType": "uint256",
              "name": "totalVotes",
              "type": "uint256"
            },
            {
              "internalType": "uint256",
              "name": "votePercent",
              "type": "uint256"
            },
            {
              "internalType": "uint256",
              "name": "seatsWon",
              "type": "uint256"
            }
          ],
          "internalType": "struct RegisterParties.parties",
          "name": "data",
          "type": "tuple"
        }
      ],
      "name": "add",
      "outputs": [
        {
          "internalType": "bool",
          "name": "",
          "type": "bool"
        }
      ],
      "stateMutability": "nonpayable",
      "type": "function"
    },
    {
      "inputs": [],
      "name": "owner",
      "outputs": [
        {
          "internalType": "address payable",
          "name": "",
          "type": "address"
        }
      ],
      "stateMutability": "view",
      "type": "function"
    }
  ],
  "bytecode": "0x6080604052348015600f57600080fd5b50336000806101000a81548173ffffffffffffffffffffffffffffffffffffffff021916908373ffffffffffffffffffffffffffffffffffffffff160217905550610ab38061005f6000396000f3fe608060405234801561001057600080fd5b50600436106100365760003560e01c806380ac56f01461003b5780638da5cb5b1461006b575b600080fd5b610055600480360381019061005091906105bf565b610089565b6040516100629190610623565b60405180910390f35b610073610215565b604051610080919061067f565b60405180910390f35b60003373ffffffffffffffffffffffffffffffffffffffff1660008054906101000a900473ffffffffffffffffffffffffffffffffffffffff1673ffffffffffffffffffffffffffffffffffffffff1614610119576040517f08c379a0000000000000000000000000000000000000000000000000000000008152600401610110906106f7565b60405180910390fd5b816001836000015160405161012e9190610788565b9081526020016040518091039020600082015181600001908161015191906109ab565b50602082015181600101908161016791906109ab565b50604082015181600201908161017d91906109ab565b50606082015181600301908161019391906109ab565b5060808201518160040190816101a991906109ab565b5060a08201518160050190816101bf91906109ab565b5060c08201518160060190816101d591906109ab565b5060e08201518160070190816101eb91906109ab565b506101008201518160080155610120820151816009015561014082015181600a0155905050919050565b60008054906101000a900473ffffffffffffffffffffffffffffffffffffffff1681565b6000604051905090565b600080fd5b600080fd5b600080fd5b6000601f19601f8301169050919050565b7f4e487b7100000000000000000000000000000000000000000000000000000000600052604160045260246000fd5b61029b82610252565b810181811067ffffffffffffffff821117156102ba576102b9610263565b5b80604052505050565b60006102cd610239565b90506102d98282610292565b919050565b600080fd5b600080fd5b600080fd5b600067ffffffffffffffff82111561030857610307610263565b5b61031182610252565b9050602081019050919050565b82818337600083830152505050565b600061034061033b846102ed565b6102c3565b90508281526020810184848401111561035c5761035b6102e8565b5b61036784828561031e565b509392505050565b600082601f830112610384576103836102e3565b5b813561039484826020860161032d565b91505092915050565b6000819050919050565b6103b08161039d565b81146103bb57600080fd5b50565b6000813590506103cd816103a7565b92915050565b600061016082840312156103ea576103e961024d565b5b6103f56101606102c3565b9050600082013567ffffffffffffffff811115610415576104146102de565b5b6104218482850161036f565b600083015250602082013567ffffffffffffffff811115610445576104446102de565b5b6104518482850161036f565b602083015250604082013567ffffffffffffffff811115610475576104746102de565b5b6104818482850161036f565b604083015250606082013567ffffffffffffffff8111156104a5576104a46102de565b5b6104b18482850161036f565b606083015250608082013567ffffffffffffffff8111156104d5576104d46102de565b5b6104e18482850161036f565b60808301525060a082013567ffffffffffffffff811115610505576105046102de565b5b6105118482850161036f565b60a08301525060c082013567ffffffffffffffff811115610535576105346102de565b5b6105418482850161036f565b60c08301525060e082013567ffffffffffffffff811115610565576105646102de565b5b6105718482850161036f565b60e083015250610100610586848285016103be565b6101008301525061012061059c848285016103be565b610120830152506101406105b2848285016103be565b6101408301525092915050565b6000602082840312156105d5576105d4610243565b5b600082013567ffffffffffffffff8111156105f3576105f2610248565b5b6105ff848285016103d3565b91505092915050565b60008115159050919050565b61061d81610608565b82525050565b60006020820190506106386000830184610614565b92915050565b600073ffffffffffffffffffffffffffffffffffffffff82169050919050565b60006106698261063e565b9050919050565b6106798161065e565b82525050565b60006020820190506106946000830184610670565b92915050565b600082825260208201905092915050565b7f4f6e6c7920746865206f776e65722063616e2061646400000000000000000000600082015250565b60006106e160168361069a565b91506106ec826106ab565b602082019050919050565b60006020820190508181036000830152610710816106d4565b9050919050565b600081519050919050565b600081905092915050565b60005b8381101561074b578082015181840152602081019050610730565b60008484015250505050565b600061076282610717565b61076c8185610722565b935061077c81856020860161072d565b80840191505092915050565b60006107948284610757565b915081905092915050565b7f4e487b7100000000000000000000000000000000000000000000000000000000600052602260045260246000fd5b600060028204905060018216806107e657607f821691505b6020821081036107f9576107f861079f565b5b50919050565b60008190508160005260206000209050919050565b60006020601f8301049050919050565b600082821b905092915050565b6000600883026108617fffffffffffffffffffffffffffffffffffffffffffffffffffffffffffffffff82610824565b61086b8683610824565b95508019841693508086168417925050509392505050565b6000819050919050565b60006108a86108a361089e8461039d565b610883565b61039d565b9050919050565b6000819050919050565b6108c28361088d565b6108d66108ce826108af565b848454610831565b825550505050565b600090565b6108eb6108de565b6108f68184846108b9565b505050565b5b8181101561091a5761090f6000826108e3565b6001810190506108fc565b5050565b601f82111561095f57610930816107ff565b61093984610814565b81016020851015610948578190505b61095c61095485610814565b8301826108fb565b50505b505050565b600082821c905092915050565b600061098260001984600802610964565b1980831691505092915050565b600061099b8383610971565b9150826002028217905092915050565b6109b482610717565b67ffffffffffffffff8111156109cd576109cc610263565b5b6109d782546107ce565b6109e282828561091e565b600060209050601f831160018114610a155760008415610a03578287015190505b610a0d858261098f565b865550610a75565b601f198416610a23866107ff565b60005b82811015610a4b57848901518255600182019150602085019450602081019050610a26565b86831015610a685784890151610a64601f891682610971565b8355505b6001600288020188555050505b50505050505056fea264697066735822122092806d4f9951545b7f70324e64abbdb79ab7d8206f5732ba27c02eff0086abd864736f6c634300081c0033",
  "linkReferences": {},
  "deployedLinkReferences": {}
}